:020000040000FA
:10000000DEC302C401C400C4FFC3FEC3FDC3FCC3FE
:10001000FBC3FAC3F9C3F8C3F7C3F6C3F5C3F4C30C
:10002000F1C6F2C3FCC92DCAEFC3EEC3EDC3ECC3E6
:10003000EBC3EAC30D0A0D0A446F20796F75206285
:10004000656C696576653F002020202020207C209B
:10005000207C2020202020202020202020207C20E8
:10006000207C002020202020207C20207C2020209C
:100070002020202020202020207C20207C002020E8
:10008000202020272E5F5F2E2720202020202020C8
:10009000202020272E5F5F2E2700202020205C209C
:1000A000205F5F20202F20202020202020205C2087
:1000B000205F5F20202F002020205C202020202097
:1000C0002020202F2020202020205C2020202020E5
:1000D0002020202F0020205C202020207C7C20203D
:1000E00020202F202020205C202020207C7C20200D
:1000F00020202F00207C5C5F5F5C202020202F5F71
:100100005F2F7C20207C5C5F5F5C202020202F5FA5
:100110005F2F7C00202F2F205C2020202020202FEC
:10012000205C5C20202F2F205C2020202020202FEE
:10013000205C5C0020202F5F202020202020202019
:100140005F5C202020202F5F2020202020202020E6
:100150005F5C002020202F20202020202020205CF9
:100160002020202020202F20202020202020205C44
:1001700000202020202E2D222222222D2E20202061
:1001800020202020202E2D222222222D2E000D0A7A
:100190000D0A446F20796F752062656C696576651C
:1001A0003F0D0A0D0A000A0A456E746572207468D4
:1001B000652064657369726564206D656E75206E77
:1001C000756D6265720009342E2041626F7574206E
:1001D0007468652042616467650009332E205669A2
:1001E00065772063757272656E7420504952455070
:1001F000530009322E204165726F73706163652070
:1002000056696C6C61676520496E666F726D6174CA
:10021000696F6E0009312E20416972706F7274200F
:10022000496E666F726D6174696F6E0053656C65BF
:1002300063742066726F6D20616E20617661696CF7
:1002400061626C65206F7074696F6E20746F206CD2
:100250006561726E206D6F72653A0057656C636FF1
:100260006D6520746F20746865204165726F7370CE
:100270006163652056696C6C6167652041697270C5
:100280006F727420284B41535629000A50726573CF
:100290007320454E54455220746F207265747572F8
:1002A0006E20746F206D61696E206D656E75004CF7
:1002B0006574207573206B6E6F772077686174208A
:1002C000796F75207468696E6B206F66207468653D
:1002D000204261646765210041726520796F752055
:1002E00066616D696C696172207769746820506914
:1002F0006C6F7420436F6E74726F6C6C6564204C0D
:1003000069676874696E673F00446F20796F752074
:100310006B6E6F77207768617420224C6F73742046
:10032000436F6D6D732220776F756C64206C6F6FF7
:100330006B206C696B652066726F6D207468652038
:10034000636F6E74726F6C20746F7765723F0048D4
:1003500061766520796F7520636F6E6E6563746575
:100360006420746865204D46447320696E20766170
:100370007279696E6720636F6D62696E6174696F0F
:100380006E733F00417274776F726B206279204404
:10039000616E20526F7070202D20666C79737572BB
:1003A0007265616C2E636F6D0A0044657369676ED8
:1003B0006564206279204063796265727465737444
:1003C00070696C6F742C206769746875622E636F36
:1003D0006D2F64616E65616C6C656E2F6176426134
:1003E0006467655F323032310041626F757420742A
:1003F00068652042616467650D0A000A5072657382
:100400007320454E54455220746F20726574757286
:100410006E20746F206D61696E206D656E7500547D
:100420006F207265706F7274206120504952455080
:1004300020706C656173652073656E6420616E2049
:10044000656D61696C20746F2070697265704061C0
:1004500065726F737061636576696C6C6167652E38
:100460006F7267207769746820746865207375629D
:100470006A656374206C696E653A20224B4153565D
:1004800020504952455022003035204155472032F6
:1004900030323120303433355A3A20506F6C696332
:1004A00065207265706F727473206F66207374724A
:1004B000616E676520626C7565206C69676874732E
:1004C00020746F2074686520574E57206F66207423
:1004D0006865206169726669656C642E0A00303552
:1004E00020415547203230323120303433305A3AAF
:1004F0002050696C6F74207265706F72746564202F
:10050000616E2022756E6964656E746966696564E2
:1005100020666C79696E67206F626A656374222059
:10052000696E207468652064697374616E63652008
:100530007768696C65206F6E2073686F72742066CF
:10054000696E616C20746F2052575932392E004306
:10055000757272656E74205049524550530D0A00F1
:100560000A507265737320454E54455220746F20B3
:1005700072657475726E20746F206D61696E206D86
:10058000656E7500546F206C6561726E206D6F72C0
:10059000652061626F75742074686520636F6D6D8E
:1005A000756E6974792C206265207375726520748C
:1005B0006F20636865636B206F75743A20616572A4
:1005C0006F737061636576696C6C6167652E6F72BD
:1005D00067004275696C642C20696E73706972657E
:1005E0002C20616E642070726F6D6F746520616E77
:1005F00020696E636C757369766520636F6D6D75C8
:100600006E697479206F66206E6578742D67656EEB
:1006100065726174696F6E206165726F737061637A
:100620006520637962657273656375726974792098
:1006300065787065727469736520616E64206C659D
:1006400061646572732E004165726F7370616365DA
:100650002056696C6C61676520496E666F726D61CA
:1006600074696F6E0D0A000A507265737320454EEF
:1006700054455220746F2072657475726E20746FC9
:10068000206D61696E206D656E75005257593A2074
:1006900032392F31310D0A415449533A2031323524
:1006A0002E38350D0A474E443A203132312E390D5D
:1006B0000A5457523A203131392E33350D0A444508
:1006C00046434F4E20417070726F6163683A20312B
:1006D00032302E3435004B4153560D0A4169727049
:1006E0006F7274207573653A2020204F70656E20FC
:1006F000746F20746865207075626C69630D0A45BB
:100700006C65766174696F6E3A203230332066749E
:100710000D0A54696D65205A6F6E653A2055544331
:10072000202D372028555443202D382064757269B8
:100730006E67205374616E646172642054696D65E4
:100740002900416972706F727420496E666F726D14
:100750006174696F6E0D0A00000000090003020059
:100760000004050800000000000000000000000177
:100770000204081020408001020408102001020435
:10078000081020408040040404040404040402020D
:100790000202020203030303030302020300000038
:1007A0000023002600290000000000250028002B5F
:1007B0000000000000240027002A00006F0A112416
:1007C0001FBECFEFD4E0DEBFCDBF11E0A0E0B1E0AF
:1007D000E4E8FEE102C005900D92A033B107D9F71D
:1007E00021E0A0E3B1E001C01D92AF3EB207E1F706
:1007F00013E0CFEDD3E003C02197FE01BAD8CE3D80
:10080000D107D1F77FD83CCBFBCBCF93DF93C4E6A6
:10081000D0E06AE171E08EE491E0FCD62197C9F75F
:10082000DF91CF910895CF93DF93EC01EEDFC230DB
:10083000D10509F467C024F5219709F44DC06BE593
:1008400072E08EE491E0F0D66CE272E08EE491E02A
:10085000EBD664E172E08EE491E0E6D662EF71E0FF
:100860008EE491E0E1D66AED71E08EE491E0DCD6B1
:1008700066EC71E08EE491E0D7D666EA71E03DC0A7
:10088000C330D10509F450C02497C9F669EE73E06E
:100890008EE491E0C9D66AEA73E08EE491E0C4D6B2
:1008A00064E873E08EE491E0BFD66FE473E08EE419
:1008B00091E0BAD669E073E08EE491E0B5D668EDD8
:1008C00072E08EE491E0B0D66FEA72E08EE491E0DF
:1008D000ABD66BE872E011C062E477E08EE491E0A1
:1008E000A3D666ED76E08EE491E09ED66BE876E0E6
:1008F0008EE491E099D667E676E08EE491E0DF91B0
:10090000CF9192C667E476E08EE491E08DD662EDF9
:1009100075E08EE491E088D664E875E08EE491E0BD
:1009200083D660E675E0E9CF6FE475E08EE491E090
:100930007BD66EED74E08EE491E076D668E874E0E4
:100940008EE491E071D66FE174E08EE491E06CD6B4
:100950006BEF73E0D2CF26E040E855E260E070E054
:100960008EE491E00CD590E080E05DDF61E08EE008
:10097000A6D361E080E1A3D361E08FE0A0D361E082
:1009800085E09DD361E089E09AD361E086E097D36A
:1009900061E081E194D361E08AE091D361E088E095
:1009A0008ED390E080E01FDA81111EC061E088E004
:1009B000C2D361E090E080E01EDA60E081E090E088
:1009C0001ADA68E873E180E090E097D260E088E0AE
:1009D000B2D31092320160E084E071D360E083E032
:1009E0006ED360E082E06BC381E090E0FCD961E00F
:1009F000811101C060E0609332016093350188E0AD
:100A00009AD3E9CF49D2AB01BC0120910D0180916D
:100A10003F0190914001A0914101B09142012223F8
:100A2000A9F00596A11DB11D481759076A077B0754
:100A300018F110920D0140933F01509340016093D3
:100A400041017093420160E081E175C38053984F8A
:100A5000AF4FBF4F481759076A077B0768F081E01F
:100A600080930D0140933F015093400160934101F9
:100A70007093420161E0E8CF0895CF930DD2AB01AE
:100A8000BC0120910C0180913B0190913C01A0910F
:100A90003D01B0913E012223E9F08C579C4FAF4FAE
:100AA000BF4F481759076A077B07D0F110920C0116
:100AB00040933B0150933C0160933D0170933E0194
:100AC00061E08EE038D361E080E135D361E08FE012
:100AD000CF9131C38854944FAF4FBF4F4817590738
:100AE0006A077B07E8F0C1E0C0930C0140933B012B
:100AF00050933C0160933D0170933E0180910B0146
:100B0000882381F061E08EE016D360E080E113D3AA
:100B100061E08FE010D380910B018C2780930B0153
:100B2000CF91089560E08EE006D360E080E103D3CA
:100B300060E0EFCFCF93B0D1AB01BC018091350124
:100B4000882309F456C08091370190913801A09113
:100B50003901B0913A0120910A012223E9F08C5029
:100B60009E4FAF4FBF4F481759076A077B07D0F119
:100B700010920A0140933701509338016093390174
:100B800070933A0161E085E0D6D261E089E0D3D28A
:100B900061E086E0CF91CFC280579E4FAF4FBF4FED
:100BA000481759076A077B07E8F0C1E0C0930A01BC
:100BB00040933701509338016093390170933A01A3
:100BC00080913601882381F061E085E0B4D260E055
:100BD00089E0B1D261E086E0AED2809136018C2707
:100BE00080933601CF91089560E085E0A4D261E062
:100BF000EFCF60E085E09FD260E0C8CF84E0C8D24C
:100C0000019709F06CC080913001909131010196FB
:100C100090933101809330012091060130910701BA
:100C2000821793070CF453C06091320181E068276A
:100C30006093320181E090E0DED810923101109291
:100C400030018091320180933501DFDD6EE871E083
:100C50008EE491E0E9D461E771E08EE491E0E4D4C0
:100C600063E571E08EE491E0DFD464E371E08EE44B
:100C700091E0DAD464E171E08EE491E0D5D464EFE0
:100C800070E08EE491E0D0D465ED70E08EE491E008
:100C9000CBD467EB70E08EE491E0C6D46AE970E0F3
:100CA0008EE491E0C1D46EE770E08EE491E0BCD4B4
:100CB00063E670E08EE491E0B7D468E470E08EE41F
:100CC00091E0B2D464E370E08EE491E0ADD4809121
:100CD000320161E0811101C060E088E02CC2109215
:100CE000310110923001F3CF83E052D20197B1F479
:100CF0008091330190913401019690933401809357
:100D0000330120910801309109018217930754F0B3
:100D10008091350191E0892780933501109234014B
:100D200010923301089582E033D20197E1F480916B
:100D300043019091440101969093440180934301B3
:100D400020910E0130910F018217930784F080915A
:100D5000100190911101019684309105A4F49093B3
:100D60001101809310011092440110924301E0910F
:100D70001001F0911101EE0FFF1FEE5EFE4F60813A
:100D800071818AE018C11092110110921001EBCF0D
:100D9000CF92DF92EF92FF92CF93DF9300D000D0FB
:100DA00000D0CDB7DEB72EDE68DEC4DE27DF9CDFE5
:100DB000BADF8EE491E014D218161906B4F441E0BB
:100DC00070E060E08EE491E0A4D46B014AE0CE01D3
:100DD00001966DD5BE016F5F7F4F8EE491E00CD41C
:100DE000CE010196F3D4C6011EDD26960FB6F89407
:100DF000DEBF0FBECDBFDF91CF91FF90EF90DF90B0
:100E0000CF9008951F920F920FB60F9211242F9337
:100E10003F938F939F93AF93BF9380914A0190919B
:100E20004B01A0914C01B0914D013091490126E058
:100E3000230F2D3768F129E8230F0396A11DB11D5B
:100E40002093490180934A0190934B01A0934C0158
:100E5000B0934D018091450190914601A0914701C9
:100E6000B09148010196A11DB11D80934501909359
:100E70004601A0934701B0934801BF91AF919F9164
:100E80008F913F912F910F900FBE0F901F9018954B
:100E90000296A11DB11DD4CF2FB7F89460914A01DD
:100EA00070914B0180914C0190914D012FBF08959D
:100EB0003FB7F8948091450190914601A091470178
:100EC000B091480126B5A89B05C02F3F19F00196A7
:100ED000A11DB11D3FBFBA2FA92F982F8827BC0194
:100EE000CD01620F711D811D911D43E0660F771FBB
:100EF000881F991F4A95D1F708958F929F92AF92BC
:100F0000BF92CF92DF92EF92FF926B017C01D0DF14
:100F10004B015C01C114D104E104F104D9F0FCD40B
:100F2000C7DF681979098A099B09683E7340810502
:100F3000910580F321E0C21AD108E108F10888EE9A
:100F4000880E83E0981EA11CB11CC114D104E104D9
:100F5000F10431F7FF90EF90DF90CF90BF90AF900A
:100F60009F908F900895789484B5836084BD85B5F3
:100F7000836085BDEEE6F0E0808181608083E1E8FA
:100F8000F0E082E08083808181608083E0E8F0E0AF
:100F9000808181608083E1EBF0E0808184608083E8
:100FA000E0EBF0E080818160808386E880937A00C6
:100FB0001092C10008951F93CF93DF93182FEB0178
:100FC00061E07DD0209731F460E0812FDF91CF91F7
:100FD0001F91B1C0CF3FD10511F461E0F6CFE12FF1
:100FE000F0E0E85AF84FE491E43031F140F4E230B7
:100FF000B1F0E330E1F0C038D1057CF7E5CFE8305F
:1010000029F1E93059F1E530B1F780918000806233
:1010100080938000D0938B00C0938A0004C084B575
:10102000806884BDC7BDDF91CF911F91089584B5BD
:10103000806284BDC8BDF7CF8091800080688093B6
:101040008000D0938900C0938800EDCF8091B000DC
:1010500080688093B000C093B300E5CF8091B0006A
:1010600080628093B000C093B400DDCF843081F003
:1010700028F48230E9F08330F9F00895883071F077
:10108000893091F08530B9F4809180008F7D03C064
:10109000809180008F778093800008958091B000C8
:1010A0008F778093B00008958091B0008F7DF9CF45
:1010B00084B58F7784BD089584B58F7DFBCFCF93A2
:1010C000DF9390E0FC01E159F84F24918A57984F43
:1010D000FC0184918823C9F090E0880F991FFC01DE
:1010E000EF54F84FA591B491FC01E955F84FC59123
:1010F000D49161110DC09FB7F8948C9120958223F3
:101100008C938881282328839FBFDF91CF910895F6
:10111000623051F49FB7F8943C91822F80958323DD
:101120008C93E8812E2BEFCF8FB7F894EC912E2B78
:101130002C938FBFEACF1F93CF93DF93282F30E0FC
:10114000F901E85AF84F8491F901E159F84FD49127
:10115000F901EA57F84FC491CC23A1F0162F811161
:1011600085DFEC2FF0E0EE0FFF1FE955F84FA5915A
:10117000B4918FB7F894EC91111108C0D095DE238B
:10118000DC938FBFDF91CF911F910895DE2BF8CFB5
:10119000CF93DF93282F30E0F901E85AF84F84917C
:1011A000F901E159F84FD491F901EA57F84FC49188
:1011B000CC2399F081115ADFEC2FF0E0EE0FFF1FE6
:1011C000E356F84FA591B491EC91ED2381E090E0C6
:1011D00009F480E0DF91CF91089580E090E0FACFAC
:1011E000FC01918D228D892F90E0805C9F4F821BA6
:1011F00091098F7399270895FC01918D828D98171D
:1012000031F0828DE80FF11D858D90E008958FEF0C
:101210009FEF0895FC01918D828D981761F0A28D4A
:10122000AE0FBF2FB11D5D968C91928D9F5F9F7306
:10123000928F90E008958FEF9FEF0895FC01538DFA
:10124000448D252F30E0842F90E0821B930B5417A0
:1012500010F0CF9608950197089586E69AE0892BBD
:1012600039F080E090E0892B19F030D18111C8C6A7
:101270000895FC01A48DA80FB92FB11DA35ABF4F2B
:101280002C91848D90E001968F739927848FA68985
:10129000B7892C93A089B1898C9180648C93938DAC
:1012A000848D981306C00288F389E02D80818F7D9C
:1012B00080830895CF93DF93EC01888D8823B1F06C
:1012C000AA89BB89E889F9898C9185FD03C0808151
:1012D00086FD0CC00FB607FCF7CF8C9185FFF2CFCF
:1012E000808185FFEDCFCE01C4DFEACFDF91CF91C2
:1012F0000895EF92FF920F931F93CF93DF93EC012A
:1013000081E0888F9B8D8C8D981316C0E889F989B0
:10131000808185FF11C0EE89FF896083E889F989A2
:1013200080818064808381E090E0DF91CF911F9184
:101330000F91FF90EF900895F62E0B8D10E00F5F48
:101340001F4F0F731127E02E8C8D8E110BC00FB61F
:1013500007FCFACFE889F989808185FFF5CFCE01B6
:1013600088DFF2CFEB8DEC0FFD2FF11DE35AFF4F1D
:10137000F0820B8FEA89FB8980818062D3CFCF9284
:10138000DF92EF92FF921F93CF93DF93EC016A01FC
:101390007B01122F60E874E88EE190E0A7019601CE
:1013A000BCD22150310941095109569547953795CD
:1013B0002795E889F98982E08083211580E1380743
:1013C00090F0E889F989108260E472E48FE090E09F
:1013D000A7019601A2D22150310941095109569520
:1013E000479537952795EC85FD853083EE85FF85FC
:1013F0002083188EEC89FD891083EA89FB8980811E
:1014000088698083EA89FB8980818F7D8083DF9171
:10141000CF911F91FF90EF90DF90CF9008951F9292
:101420000F920FB60F9211242F938F939F93EF93E8
:10143000FF93E0915E01F0915F018081E091640192
:10144000F091650182FD1BC09081809167018F5FE3
:101450008F7320916801821741F0E0916701F0E0FD
:10146000E25BFE4F958F80936701FF91EF919F9113
:101470008F912F910F900FBE0F901F901895808124
:10148000F4CF1F920F920FB60F9211242F933F9318
:101490004F935F936F937F938F939F93AF93BF937C
:1014A000EF93FF938EE491E0E4DEFF91EF91BF9123
:1014B000AF919F918F917F916F915F914F913F91EC
:1014C0002F910F900FBE0F901F9018958EE491E012
:1014D00087DE21E0892B09F420E0822F0895EEE4D5
:1014E000F1E01382128288EE93E0A0E0B0E0848302
:1014F0009583A683B78381E291E09183808385EC15
:1015000090E09587848784EC90E09787868780ECCD
:1015100090E0918B808B81EC90E0938B828B82ECBE
:1015200090E0958B848B86EC90E0978B868B118E68
:10153000128E138E148E0895AF92BF92CF92DF92C7
:10154000EF92FF920F931F93CF93DF936C017B0178
:101550008B01040F151FEB015E01AE18BF08C01709
:10156000D10759F06991D601ED91FC910190F0817C
:10157000E02DC6010995892B79F7C501DF91CF913F
:101580001F910F91FF90EF90DF90CF90BF90AF90A1
:101590000895FB0101900020E9F73197AF01461B48
:1015A000570BDC01ED91FC910280F381E02D099451
:1015B000EF92FF920F931F93CF93DF938C017B01E8
:1015C000D0E0C0E0F701EC0FFD1F6491662361F0ED
:1015D000D801ED91FC910190F081E02DC8010995B1
:1015E000892B11F02196EECFCE01DF91CF911F9183
:1015F0000F91FF90EF900895DB0114964D915C914F
:1016000015976D917C91DC01ED91FC910280F38145
:10161000E02D09946115710509F0BBCF90E080E0E1
:1016200008956AE171E0B5CF0F931F93CF93DF93D5
:10163000EC01BEDF8C01CE01F4DF800F911FDF9142
:10164000CF911F910F9108950F931F93CF93DF9325
:10165000EC0122DC688779878A879B87E881F9819A
:101660000484F585E02DCE01099597FF14C014DCA4
:10167000088519852A853B85601B710B820B930BAE
:101680000C811D812E813F816017710782079307AE
:1016900028F38FEF9FEFDF91CF911F910F91089566
:1016A000FF920F931F93CF93DF93EC018B01F42EE6
:1016B000CE01CADF97FD1DC08D329105D1F09C018E
:1016C000205331092A303105A0F0FF2019F08E3265
:1016D000910579F00130110551F00230110589F4BE
:1016E0008D30910571F05CF40997029750F08FEFFF
:1016F0009FEFDF91CF911F910F91FF9008958097F9
:10170000B1F7E881F9810284F385E02DCE010995D6
:10171000CFCFBF92CF92DF92EF92FF920F931F93A2
:10172000CF93DF938C01C42F40E0BADFFC01C12CC2
:10173000D12C760197FD3BC0B12C0C2E000CDD0B9B
:10174000CE17DF07C9F0ED32F105E9F1CF01C097FF
:101750000A9790F4AAE0B0E0A701960100D16F01CA
:10176000FF0FEE08FF08C60ED71EE81EF91E80E325
:10177000C81AD108E108F108D801ED91FC91028462
:10178000F385E02DC8010995C8015EDFFC01C09713
:101790000A97B0F2CE17DF0799F2BB2041F0F09420
:1017A000E094D094C094C11CD11CE11CF11CC70171
:1017B000B601DF91CF911F910F91FF90EF90DF90D5
:1017C000CF90BF900895BB24B394D6CFFC01808105
:1017D00091817DC1CF93DF93EC018881998100973E
:1017E00009F075D1198218821D821C821B821A820F
:1017F000DF91CF9108950F931F93CF93DF93EC0167
:101800008B016F5F7F4F88819981EAD1009751F0FA
:10181000998388831B830A8381E0DF91CF911F9195
:101820000F91089580E0F9CFCF93DF93EC01888189
:101830009981892B49F08A819B818617970720F02F
:1018400081E0DF91CF910895CE01D5DF8823C9F3E0
:101850008C819D81892BA1F7E881F9811082F0CFDD
:10186000EF92FF920F931F93CF93DF93EC017B01D5
:101870008A01BA01D9DF81110AC0CE01ABDFCE01E6
:10188000DF91CF911F910F91FF90EF9008951D83ED
:101890000C83B7018881998162D2F1CFFB0101905D
:1018A0000020E9F73197AF01461B570BD9CF0F93B3
:1018B0001F93CF93DF93CDB7DEB762970FB6F8943F
:1018C000DEBF0FBECDBF8C01CB01F80111821082AB
:1018D000138212821582148250E0BE016F5F7F4F27
:1018E00045D2BE016F5F7F4FC801D8DF62960FB649
:1018F000F894DEBF0FBECDBFDF91CF911F910F9146
:101900000895089530DBFDDF26D8CDE2D9E040DA36
:101910002097E9F3A2DCFBCF0895A1E21A2EAA1BBF
:10192000BB1BFD010DC0AA1FBB1FEE1FFF1FA2178F
:10193000B307E407F50720F0A21BB30BE40BF50B8C
:10194000661F771F881F991F1A9469F76095709515
:10195000809590959B01AC01BD01CF0108950FD0FA
:10196000A59F900DB49F900DA49F800D911D1124F3
:101970000895EE0FFF1F0590F491E02D0994A29FAA
:10198000B001B39FC001A39F01D0B29F700D811D14
:101990001124911D08950F931F93CF93DF938230ED
:1019A000910510F482E090E0E091ED01F091EE01FC
:1019B00030E020E0B0E0A0E0309799F42115310547
:1019C00009F44AC0281B390B24303105D8F58A8127
:1019D0009B816115710589F1FB0193838283FE016F
:1019E00011C0408151810281138148175907E0F0ED
:1019F0004817590799F4109761F012960C931297B3
:101A000013961C933296CF01DF91CF911F910F91C6
:101A100008950093ED011093EE01F4CF21153105E7
:101A200051F04217530738F0A901DB019A01BD01BB
:101A3000DF01F801C1CFEF01F9CF9093EE01809360
:101A4000ED01CDCFFE01E20FF31F81939193225060
:101A5000310939832883D7CF2091EB013091EC01F4
:101A6000232B41F420910201309103013093EC01CA
:101A70002093EB01209100013091010121153105E6
:101A800041F42DB73EB74091040150910501241B4C
:101A9000350BE091EB01F091EC01E217F307A0F4B4
:101AA0002E1B3F0B2817390778F0AC014E5F5F4FB4
:101AB0002417350748F04E0F5F1F5093EC014093F9
:101AC000EB01819391939FCFF0E0E0E09CCFCF9327
:101AD000DF930097E9F0FC01329713821282A09104
:101AE000ED01B091EE01ED0130E020E01097A1F49E
:101AF00020813181820F931F2091EB013091EC0105
:101B00002817390709F061C0F093EC01E093EB016D
:101B1000DF91CF910895EA01CE17DF07E8F54A81FA
:101B20005B819E0141155105B1F7E901FB83EA8311
:101B300049915991C40FD51FEC17FD0761F48081BD
:101B400091810296840F951FE90199838883828190
:101B500093819B838A83F0E0E0E012968D919C91C3
:101B600013970097B9F52D913C911197CD010296ED
:101B7000820F931F2091EB013091EC012817390758
:101B800039F6309751F51092EE011092ED01B093B5
:101B9000EC01A093EB01BCCFD383C2834081518180
:101BA000840F951FC817D90761F44E5F5F4F888176
:101BB0009981480F591F518340838A819B81938368
:101BC00082832115310509F0B0CFF093EE01E09347
:101BD000ED019ECFFD01DC01C0CF13821282D7CF71
:101BE000B0E0A0E0E5EFFDE016C18C01009741F404
:101BF000CB01D1DE8C01C801CDB7DEB7E0E127C152
:101C0000FC01E60FF71F9C0122503109E217F30790
:101C100008F499C0D901CD91DC911197C617D70767
:101C200090F0C530D10538F3CE0104978617970799
:101C300010F3C61BD70B2297C193D1936D937C935E
:101C4000CF0145DFD8CF5B01AC1ABD0A4C018C0E29
:101C50009D1EA091ED01B091EE01512C412CF12C73
:101C6000E12C109731F58091EB019091EC018815F2
:101C7000990509F05CC04616570608F058C08091D7
:101C8000000190910101009741F48DB79EB74091FA
:101C9000040150910501841B950BE817F90708F022
:101CA00052C0F093EC01E093EB01F9017183608382
:101CB000A2CF8D919C91119712966C9012971396CA
:101CC0007C901397A815B90559F56C0142E0C40E34
:101CD000D11CCA14DB0420F1AC014A195B09DA01FA
:101CE0001296159780F06282738251834083D901E6
:101CF0006D937C93E114F10471F0D7011396FC937A
:101D0000EE93129778CF22968C0F9D1FF901918345
:101D10008083F301EFCFF093EE01E093ED016BCF01
:101D20004816590608F42C017D01D3019ACFCB0146
:101D300032DE7C01009739F0AE01B80107D0C8014E
:101D4000C6DE870158CF10E000E055CFFB01DC0173
:101D500002C001900D9241505040D8F70895FB0108
:101D6000DC0101900D920020E1F708954532510504
:101D700018F4423008F004C0FB011082CB01089532
:101D8000BB274A3031F4992322F4BDE29095819526
:101D90009F4F01C0BB27FB015527AA27880F991F1A
:101DA000AA1FA41710F0A41B83955051B9F7A05D8A
:101DB000AA3308F0A95DA193009779F7B111B19307
:101DC0001192CB0100C0DC01FC01672F71917723D8
:101DD000E1F7329704C07C916D9370836291AE17E6
:101DE000BF07C8F30895F999FECF92BD81BDF89A57
:101DF000992780B50895262FF999FECF1FBA92BD75
:101E000081BD20BD0FB6F894FA9AF99A0FBE0196DB
:101E100008952F923F924F925F926F927F928F928E
:101E20009F92AF92BF92CF92DF92EF92FF920F9369
:101E30001F93CF93DF93CDB7DEB7CA1BDB0B0FB673
:101E4000F894DEBF0FBECDBF09942A883988488830
:101E50005F846E847D848C849B84AA84B984C884C6
:101E6000DF80EE80FD800C811B81AA81B981CE0FBD
:101E7000D11D0FB6F894DEBF0FBECDBFED010895A2
:101E8000F894FFCF0000EF018000204E10270101E1
:101E90000101D0070100000014003200C8000D0A43
:101EA000000000000079099C0A1E095A09F0080A7E
:041EB00009FC080021
:00000001FF
