:020000040000FA
:1000000019C028C027C026C025C024C023C022C0D4
:1000100021C020C01FC01EC01DC01CC01BC01AC0F4
:100020002AC018C017C016C015C014C013C012C013
:1000300011C010C011241FBECFEFD4E0DEBFCDBF72
:1000400021E0A0E0B1E001C01D92A930B207E1F7C4
:1000500008D091C0D5CF60E090E080E07EC00895E8
:10006000089553D0FDDFF7DFC0E0D0E0F8DF209740
:10007000E9F3C6DFFBCF1F920F920FB60F92112448
:100080002F933F938F939F93AF93BF9380910501DD
:1000900090910601A0910701B091080130910401EF
:1000A00026E0230F2D3768F129E8230F0396A11DC1
:1000B000B11D209304018093050190930601A09344
:1000C0000701B09308018091000190910101A09176
:1000D0000201B09103010196A11DB11D80930001A1
:1000E00090930101A0930201B0930301BF91AF91DE
:1000F0009F918F913F912F910F900FBE0F901F9066
:1001000018950296A11DB11DD4CF789484B5836053
:1001100084BD85B5836085BDEEE6F0E080818160B9
:100120008083E1E8F0E082E08083808181608083E9
:10013000E0E8F0E0808181608083E1EBF0E08081A5
:1001400084608083E0EBF0E080818160808386E8DA
:1001500080937A001092C1000895262FF999FECF5E
:100160001FBA92BD81BD20BD0FB6F894FA9AF99AD4
:0A0170000FBE01960895F894FFCF2A
:00000001FF
